{
  "contractName": "Hashify",
  "abi": [
    {
      "constant": true,
      "inputs": [],
      "name": "owner",
      "outputs": [
        {
          "name": "",
          "type": "address"
        }
      ],
      "payable": false,
      "stateMutability": "view",
      "type": "function"
    },
    {
      "inputs": [],
      "payable": false,
      "stateMutability": "nonpayable",
      "type": "constructor"
    },
    {
      "anonymous": false,
      "inputs": [
        {
          "indexed": true,
          "name": "hash",
          "type": "bytes32"
        },
        {
          "indexed": true,
          "name": "index",
          "type": "uint256"
        },
        {
          "indexed": true,
          "name": "account",
          "type": "address"
        }
      ],
      "name": "HashAdded",
      "type": "event"
    },
    {
      "anonymous": false,
      "inputs": [
        {
          "indexed": true,
          "name": "hash",
          "type": "bytes32"
        },
        {
          "indexed": true,
          "name": "block",
          "type": "uint256"
        },
        {
          "indexed": true,
          "name": "account",
          "type": "address"
        }
      ],
      "name": "HashVerified",
      "type": "event"
    },
    {
      "anonymous": false,
      "inputs": [
        {
          "indexed": true,
          "name": "hashes",
          "type": "bytes32[]"
        },
        {
          "indexed": true,
          "name": "account",
          "type": "address"
        }
      ],
      "name": "HashesListed",
      "type": "event"
    },
    {
      "anonymous": false,
      "inputs": [
        {
          "indexed": true,
          "name": "hash",
          "type": "bytes32"
        },
        {
          "indexed": true,
          "name": "verified",
          "type": "bool"
        },
        {
          "indexed": true,
          "name": "block",
          "type": "uint256"
        },
        {
          "indexed": false,
          "name": "v",
          "type": "uint8"
        },
        {
          "indexed": false,
          "name": "r",
          "type": "bytes32"
        },
        {
          "indexed": false,
          "name": "s",
          "type": "bytes32"
        }
      ],
      "name": "HashInfo",
      "type": "event"
    },
    {
      "anonymous": false,
      "inputs": [
        {
          "indexed": true,
          "name": "account",
          "type": "address"
        },
        {
          "indexed": true,
          "name": "hash",
          "type": "bytes32"
        }
      ],
      "name": "HashDeleted",
      "type": "event"
    },
    {
      "constant": false,
      "inputs": [
        {
          "name": "_hash",
          "type": "bytes32"
        }
      ],
      "name": "addHash",
      "outputs": [],
      "payable": false,
      "stateMutability": "nonpayable",
      "type": "function"
    },
    {
      "constant": false,
      "inputs": [
        {
          "name": "_index",
          "type": "uint256"
        },
        {
          "name": "v",
          "type": "uint8"
        },
        {
          "name": "r",
          "type": "bytes32"
        },
        {
          "name": "s",
          "type": "bytes32"
        }
      ],
      "name": "registerVerification",
      "outputs": [],
      "payable": false,
      "stateMutability": "nonpayable",
      "type": "function"
    },
    {
      "constant": false,
      "inputs": [],
      "name": "getHashes",
      "outputs": [],
      "payable": false,
      "stateMutability": "nonpayable",
      "type": "function"
    },
    {
      "constant": false,
      "inputs": [
        {
          "name": "_address",
          "type": "address"
        },
        {
          "name": "_index",
          "type": "uint256"
        }
      ],
      "name": "getHashInfo",
      "outputs": [],
      "payable": false,
      "stateMutability": "nonpayable",
      "type": "function"
    },
    {
      "constant": false,
      "inputs": [
        {
          "name": "_index",
          "type": "uint256"
        }
      ],
      "name": "deleteHash",
      "outputs": [],
      "payable": false,
      "stateMutability": "nonpayable",
      "type": "function"
    }
  ],
  "bytecode": "0x608060405234801561001057600080fd5b50336000806101000a81548173ffffffffffffffffffffffffffffffffffffffff021916908373ffffffffffffffffffffffffffffffffffffffff160217905550610efa806100606000396000f3fe608060405260043610610078576000357c0100000000000000000000000000000000000000000000000000000000900463ffffffff1680633631191e1461007d5780634245d48e146100b857806343e08ad1146100cf578063774ed1671461010a5780638da5cb5b14610165578063a03a78ef146101bc575b600080fd5b34801561008957600080fd5b506100b6600480360360208110156100a057600080fd5b8101908080359060200190929190505050610218565b005b3480156100c457600080fd5b506100cd610502565b005b3480156100db57600080fd5b50610108600480360360208110156100f257600080fd5b81019080803590602001909291905050506106d9565b005b34801561011657600080fd5b506101636004803603604081101561012d57600080fd5b81019080803573ffffffffffffffffffffffffffffffffffffffff16906020019092919080359060200190929190505050610879565b005b34801561017157600080fd5b5061017a610b17565b604051808273ffffffffffffffffffffffffffffffffffffffff1673ffffffffffffffffffffffffffffffffffffffff16815260200191505060405180910390f35b3480156101c857600080fd5b50610216600480360360808110156101df57600080fd5b8101908080359060200190929190803560ff1690602001909291908035906020019092919080359060200190929190505050610b3c565b005b600160003373ffffffffffffffffffffffffffffffffffffffff1673ffffffffffffffffffffffffffffffffffffffff168152602001908152602001600020805490508110151561026857600080fd5b6000600160003373ffffffffffffffffffffffffffffffffffffffff1673ffffffffffffffffffffffffffffffffffffffff168152602001908152602001600020828154811015156102b657fe5b906000526020600020906006020160000154905060008290505b60018060003373ffffffffffffffffffffffffffffffffffffffff1673ffffffffffffffffffffffffffffffffffffffff168152602001908152602001600020805490500381101561046657600160003373ffffffffffffffffffffffffffffffffffffffff1673ffffffffffffffffffffffffffffffffffffffff1681526020019081526020016000206001820181548110151561036b57fe5b9060005260206000209060060201600160003373ffffffffffffffffffffffffffffffffffffffff1673ffffffffffffffffffffffffffffffffffffffff168152602001908152602001600020828154811015156103c557fe5b9060005260206000209060060201600082015481600001556001820160009054906101000a900460ff168160010160006101000a81548160ff021916908315150217905550600282015481600201556003820160009054906101000a900460ff168160030160006101000a81548160ff021916908360ff160217905550600482015481600401556005820154816005015590505080806001019150506102d0565b50600160003373ffffffffffffffffffffffffffffffffffffffff1673ffffffffffffffffffffffffffffffffffffffff1681526020019081526020016000208054809190600190036104b99190610e35565b50803373ffffffffffffffffffffffffffffffffffffffff167f434aac7af0aa1bc10053270b8766a5919d569d26b938a852ab774c0ab5c96f2060405160405180910390a35050565b6060600160003373ffffffffffffffffffffffffffffffffffffffff1673ffffffffffffffffffffffffffffffffffffffff168152602001908152602001600020805490506040519080825280602002602001820160405280156105755781602001602082028038833980820191505090505b50905060008090505b600160003373ffffffffffffffffffffffffffffffffffffffff1673ffffffffffffffffffffffffffffffffffffffff1681526020019081526020016000208054905081101561064f57600160003373ffffffffffffffffffffffffffffffffffffffff1673ffffffffffffffffffffffffffffffffffffffff1681526020019081526020016000208181548110151561061457fe5b906000526020600020906006020160000154828281518110151561063457fe5b9060200190602002018181525050808060010191505061057e565b503373ffffffffffffffffffffffffffffffffffffffff168160405180828051906020019060200280838360005b8381101561069857808201518184015260208101905061067d565b5050505090500191505060405180910390207fd19e1ceb55122690abff488d91c96e2e5281537907125462ee91d733b233899160405160405180910390a350565b600160003373ffffffffffffffffffffffffffffffffffffffff1673ffffffffffffffffffffffffffffffffffffffff16815260200190815260200160002060c06040519081016040528083815260200160001515815260200160008152602001600060ff168152602001600060010281526020016000600102815250908060018154018082558091505090600182039060005260206000209060060201600090919290919091506000820151816000015560208201518160010160006101000a81548160ff0219169083151502179055506040820151816002015560608201518160030160006101000a81548160ff021916908360ff1602179055506080820151816004015560a082015181600501555050503373ffffffffffffffffffffffffffffffffffffffff1660018060003373ffffffffffffffffffffffffffffffffffffffff1673ffffffffffffffffffffffffffffffffffffffff1681526020019081526020016000208054905003827ffdba417557fae56ec671140cca82971fb5f5eec08410cab64375953fed4a12a360405160405180910390a450565b600160008373ffffffffffffffffffffffffffffffffffffffff1673ffffffffffffffffffffffffffffffffffffffff168152602001908152602001600020818154811015156108c557fe5b906000526020600020906006020160020154600160008473ffffffffffffffffffffffffffffffffffffffff1673ffffffffffffffffffffffffffffffffffffffff1681526020019081526020016000208281548110151561092357fe5b906000526020600020906006020160010160009054906101000a900460ff161515600160008573ffffffffffffffffffffffffffffffffffffffff1673ffffffffffffffffffffffffffffffffffffffff1681526020019081526020016000208381548110151561099057fe5b9060005260206000209060060201600001547ffca18ae750cf47fedc7085bd96716d2477c061268aea82c47c5b5be1ffb715cb600160008773ffffffffffffffffffffffffffffffffffffffff1673ffffffffffffffffffffffffffffffffffffffff16815260200190815260200160002085815481101515610a0f57fe5b906000526020600020906006020160030160009054906101000a900460ff16600160008873ffffffffffffffffffffffffffffffffffffffff1673ffffffffffffffffffffffffffffffffffffffff16815260200190815260200160002086815481101515610a7a57fe5b906000526020600020906006020160040154600160008973ffffffffffffffffffffffffffffffffffffffff1673ffffffffffffffffffffffffffffffffffffffff16815260200190815260200160002087815481101515610ad857fe5b906000526020600020906006020160050154604051808460ff1660ff168152602001838152602001828152602001935050505060405180910390a45050565b6000809054906101000a900473ffffffffffffffffffffffffffffffffffffffff1681565b6000600160003373ffffffffffffffffffffffffffffffffffffffff1673ffffffffffffffffffffffffffffffffffffffff16815260200190815260200160002085815481101515610b8a57fe5b906000526020600020906006020160000154905060008160405160200180807f19457468657265756d205369676e6564204d6573736167653a0a333200000000815250601c0182815260200191505060405160208183030381529060405280519060200120905060018186868660405160008152602001604052604051808581526020018460ff1660ff1681526020018381526020018281526020019450505050506020604051602081039080840390855afa158015610c4e573d6000803e3d6000fd5b5050506020604051035173ffffffffffffffffffffffffffffffffffffffff163373ffffffffffffffffffffffffffffffffffffffff16141515610c9157600080fd5b60c0604051908101604052808381526020016001151581526020014381526020018660ff16815260200185815260200184815250600160003373ffffffffffffffffffffffffffffffffffffffff1673ffffffffffffffffffffffffffffffffffffffff16815260200190815260200160002087815481101515610d1157fe5b90600052602060002090600602016000820151816000015560208201518160010160006101000a81548160ff0219169083151502179055506040820151816002015560608201518160030160006101000a81548160ff021916908360ff1602179055506080820151816004015560a082015181600501559050503373ffffffffffffffffffffffffffffffffffffffff1643600160003373ffffffffffffffffffffffffffffffffffffffff1673ffffffffffffffffffffffffffffffffffffffff16815260200190815260200160002088815481101515610def57fe5b9060005260206000209060060201600001547f25c6a92160d18c07a5a8b4a95aa80a2650a63fd4e673510b0016c1d490780c9b60405160405180910390a4505050505050565b815481835581811115610e6257600602816006028360005260206000209182019101610e619190610e67565b5b505050565b610ecb91905b80821115610ec7576000808201600090556001820160006101000a81549060ff021916905560028201600090556003820160006101000a81549060ff02191690556004820160009055600582016000905550600601610e6d565b5090565b9056fea165627a7a72305820f3d10057e5b9fc5562be28c26f515ecc0f835c0161c229b76bd8b9c10b080f590029",
  "source": "pragma solidity ^0.5.0;\n\ncontract Hashify {\n\n    address public owner;\n    mapping(address => hashInfo[]) internal hashes;\n    \n    struct hashInfo {\n        bytes32 hash;\n        bool signed;\n        uint256 signedAtBlock;\n        uint8 v;\n        bytes32 r;\n        bytes32 s;\n    }\n    \n    event HashAdded(bytes32 indexed hash, uint256 indexed index, address indexed account);\n    event HashVerified(bytes32 indexed hash, uint256 indexed block, address indexed account);\n    event HashesListed(bytes32[] indexed hashes, address indexed account);\n    event HashInfo(bytes32 indexed hash, bool indexed verified, uint256 indexed block, uint8 v, bytes32 r,bytes32 s);\n    event HashDeleted(address indexed account, bytes32 indexed hash);\n\n    constructor() public {\n        owner = msg.sender;\n    }\n    \n    function addHash(bytes32 _hash) public {\n        hashes[msg.sender].push(hashInfo(_hash,false,0,0,0,0));\n        emit HashAdded(_hash, hashes[msg.sender].length-1, msg.sender);\n    }\n    \n    function registerVerification(uint256 _index, uint8 v, bytes32 r, bytes32 s) public {\n        bytes32 hashToVerify = hashes[msg.sender][_index].hash;\n        bytes32 prefixedHash = keccak256(abi.encodePacked(\"\\x19Ethereum Signed Message:\\n32\", hashToVerify));\n        require(msg.sender == ecrecover(prefixedHash, v, r, s));\n        hashes[msg.sender][_index] = hashInfo(hashToVerify,true,block.number,v,r,s);\n        emit HashVerified(hashes[msg.sender][_index].hash, block.number, msg.sender);\n    }\n    \n    function getHashes() public {\n        bytes32[] memory returnHashes = new bytes32[](hashes[msg.sender].length);\n        for (uint i = 0; i<hashes[msg.sender].length; i++){\n            returnHashes[i] = hashes[msg.sender][i].hash;\n        }\n        emit HashesListed(returnHashes, msg.sender);\n    }\n    \n    function getHashInfo(address _address, uint256 _index) public {\n        emit HashInfo(hashes[_address][_index].hash,\n        hashes[_address][_index].signed,\n        hashes[_address][_index].signedAtBlock,\n        hashes[_address][_index].v,\n        hashes[_address][_index].r,\n        hashes[_address][_index].s);\n    }\n    \n    function deleteHash(uint256 _index) public {\n        require(_index < hashes[msg.sender].length);\n        bytes32 deletedHash = hashes[msg.sender][_index].hash;\n        for (uint i = _index; i<hashes[msg.sender].length-1; i++){\n            hashes[msg.sender][i] = hashes[msg.sender][i+1];\n        }\n        hashes[msg.sender].length--;\n        emit HashDeleted(msg.sender, deletedHash);\n    }\n}",
  "sourcePath": "/Users/dylanbaker/Local/hashify/smart-contract/contracts/Hashify.sol",
  "compiler": {
    "name": "solc",
    "version": "0.5.0+commit.1d4f565a.Emscripten.clang"
  },
  "schemaVersion": "3.0.3",
  "updatedAt": "2019-04-04T19:38:19.629Z",
  "devdoc": {
    "methods": {}
  },
  "userdoc": {
    "methods": {}
  }
}