{
  "contractName": "NewHash",
  "abi": [
    {
      "constant": true,
      "inputs": [],
      "name": "owner",
      "outputs": [
        {
          "name": "",
          "type": "address"
        }
      ],
      "payable": false,
      "stateMutability": "view",
      "type": "function"
    },
    {
      "inputs": [],
      "payable": false,
      "stateMutability": "nonpayable",
      "type": "constructor"
    },
    {
      "anonymous": false,
      "inputs": [
        {
          "indexed": true,
          "name": "hash",
          "type": "bytes32"
        },
        {
          "indexed": true,
          "name": "index",
          "type": "uint256"
        },
        {
          "indexed": true,
          "name": "account",
          "type": "address"
        }
      ],
      "name": "HashAdded",
      "type": "event"
    },
    {
      "anonymous": false,
      "inputs": [
        {
          "indexed": true,
          "name": "hash",
          "type": "bytes32"
        },
        {
          "indexed": true,
          "name": "block",
          "type": "uint256"
        },
        {
          "indexed": true,
          "name": "account",
          "type": "address"
        }
      ],
      "name": "VerificationRegistered",
      "type": "event"
    },
    {
      "anonymous": false,
      "inputs": [
        {
          "indexed": true,
          "name": "account",
          "type": "address"
        },
        {
          "indexed": true,
          "name": "hash",
          "type": "bytes32"
        },
        {
          "indexed": true,
          "name": "verified",
          "type": "bool"
        }
      ],
      "name": "VerificationChecked",
      "type": "event"
    },
    {
      "anonymous": false,
      "inputs": [
        {
          "indexed": true,
          "name": "hashes",
          "type": "bytes32[]"
        },
        {
          "indexed": true,
          "name": "account",
          "type": "address"
        }
      ],
      "name": "HashesGotten",
      "type": "event"
    },
    {
      "anonymous": false,
      "inputs": [
        {
          "indexed": false,
          "name": "hash",
          "type": "bytes32"
        },
        {
          "indexed": false,
          "name": "verified",
          "type": "bool"
        },
        {
          "indexed": false,
          "name": "block",
          "type": "uint256"
        },
        {
          "indexed": false,
          "name": "v",
          "type": "uint8"
        },
        {
          "indexed": false,
          "name": "r",
          "type": "bytes32"
        },
        {
          "indexed": false,
          "name": "s",
          "type": "bytes32"
        }
      ],
      "name": "HashInfoGotten",
      "type": "event"
    },
    {
      "anonymous": false,
      "inputs": [
        {
          "indexed": true,
          "name": "account",
          "type": "address"
        },
        {
          "indexed": true,
          "name": "allowee",
          "type": "address"
        }
      ],
      "name": "Allowed",
      "type": "event"
    },
    {
      "anonymous": false,
      "inputs": [
        {
          "indexed": true,
          "name": "account",
          "type": "address"
        },
        {
          "indexed": true,
          "name": "disallowee",
          "type": "address"
        }
      ],
      "name": "Disallowed",
      "type": "event"
    },
    {
      "anonymous": false,
      "inputs": [
        {
          "indexed": true,
          "name": "account",
          "type": "address"
        },
        {
          "indexed": true,
          "name": "hash",
          "type": "bytes32"
        }
      ],
      "name": "HashDeleted",
      "type": "event"
    },
    {
      "constant": false,
      "inputs": [
        {
          "name": "_hash",
          "type": "bytes32"
        }
      ],
      "name": "addHash",
      "outputs": [],
      "payable": false,
      "stateMutability": "nonpayable",
      "type": "function"
    },
    {
      "constant": false,
      "inputs": [
        {
          "name": "_index",
          "type": "uint256"
        },
        {
          "name": "v",
          "type": "uint8"
        },
        {
          "name": "r",
          "type": "bytes32"
        },
        {
          "name": "s",
          "type": "bytes32"
        }
      ],
      "name": "registerVerification",
      "outputs": [],
      "payable": false,
      "stateMutability": "nonpayable",
      "type": "function"
    },
    {
      "constant": false,
      "inputs": [
        {
          "name": "_address",
          "type": "address"
        },
        {
          "name": "_index",
          "type": "uint256"
        }
      ],
      "name": "checkVerification",
      "outputs": [
        {
          "name": "isVerified",
          "type": "bool"
        }
      ],
      "payable": false,
      "stateMutability": "nonpayable",
      "type": "function"
    },
    {
      "constant": false,
      "inputs": [],
      "name": "getHashes",
      "outputs": [
        {
          "name": "hashArray",
          "type": "bytes32[]"
        }
      ],
      "payable": false,
      "stateMutability": "nonpayable",
      "type": "function"
    },
    {
      "constant": false,
      "inputs": [
        {
          "name": "_address",
          "type": "address"
        },
        {
          "name": "_index",
          "type": "uint256"
        }
      ],
      "name": "getHashInfo",
      "outputs": [],
      "payable": false,
      "stateMutability": "nonpayable",
      "type": "function"
    },
    {
      "constant": false,
      "inputs": [
        {
          "name": "_address",
          "type": "address"
        }
      ],
      "name": "allow",
      "outputs": [
        {
          "name": "",
          "type": "address"
        }
      ],
      "payable": false,
      "stateMutability": "nonpayable",
      "type": "function"
    },
    {
      "constant": false,
      "inputs": [
        {
          "name": "_address",
          "type": "address"
        }
      ],
      "name": "disAllow",
      "outputs": [
        {
          "name": "",
          "type": "address"
        }
      ],
      "payable": false,
      "stateMutability": "nonpayable",
      "type": "function"
    },
    {
      "constant": false,
      "inputs": [
        {
          "name": "_index",
          "type": "uint256"
        }
      ],
      "name": "deleteHash",
      "outputs": [
        {
          "name": "deletedHash",
          "type": "bytes32"
        }
      ],
      "payable": false,
      "stateMutability": "nonpayable",
      "type": "function"
    }
  ],
  "bytecode": "0x608060405234801561001057600080fd5b50336000806101000a81548173ffffffffffffffffffffffffffffffffffffffff021916908373ffffffffffffffffffffffffffffffffffffffff160217905550611644806100606000396000f3fe608060405260043610610099576000357c0100000000000000000000000000000000000000000000000000000000900463ffffffff1680633631191e1461009e5780634245d48e146100ed57806343e08ad114610159578063774ed167146101945780638da5cb5b146101ef578063a03a78ef14610246578063c6cc7474146102a2578063cf8aacdd14610315578063ff9913e8146103a6575b600080fd5b3480156100aa57600080fd5b506100d7600480360360208110156100c157600080fd5b8101908080359060200190929190505050610437565b6040518082815260200191505060405180910390f35b3480156100f957600080fd5b50610102610726565b6040518080602001828103825283818151815260200191508051906020019060200280838360005b8381101561014557808201518184015260208101905061012a565b505050509050019250505060405180910390f35b34801561016557600080fd5b506101926004803603602081101561017c57600080fd5b8101908080359060200190929190505050610902565b005b3480156101a057600080fd5b506101ed600480360360408110156101b757600080fd5b81019080803573ffffffffffffffffffffffffffffffffffffffff16906020019092919080359060200190929190505050610aa3565b005b3480156101fb57600080fd5b50610204610e23565b604051808273ffffffffffffffffffffffffffffffffffffffff1673ffffffffffffffffffffffffffffffffffffffff16815260200191505060405180910390f35b34801561025257600080fd5b506102a06004803603608081101561026957600080fd5b8101908080359060200190929190803560ff1690602001909291908035906020019092919080359060200190929190505050610e48565b005b3480156102ae57600080fd5b506102fb600480360360408110156102c557600080fd5b81019080803573ffffffffffffffffffffffffffffffffffffffff16906020019092919080359060200190929190505050611141565b604051808215151515815260200191505060405180910390f35b34801561032157600080fd5b506103646004803603602081101561033857600080fd5b81019080803573ffffffffffffffffffffffffffffffffffffffff16906020019092919050505061138f565b604051808273ffffffffffffffffffffffffffffffffffffffff1673ffffffffffffffffffffffffffffffffffffffff16815260200191505060405180910390f35b3480156103b257600080fd5b506103f5600480360360208110156103c957600080fd5b81019080803573ffffffffffffffffffffffffffffffffffffffff169060200190929190505050611487565b604051808273ffffffffffffffffffffffffffffffffffffffff1673ffffffffffffffffffffffffffffffffffffffff16815260200191505060405180910390f35b6000600260003373ffffffffffffffffffffffffffffffffffffffff1673ffffffffffffffffffffffffffffffffffffffff168152602001908152602001600020805490508210151561048957600080fd5b600260003373ffffffffffffffffffffffffffffffffffffffff1673ffffffffffffffffffffffffffffffffffffffff168152602001908152602001600020828154811015156104d557fe5b906000526020600020906006020160000154905060008290505b6001600260003373ffffffffffffffffffffffffffffffffffffffff1673ffffffffffffffffffffffffffffffffffffffff168152602001908152602001600020805490500381101561068657600260003373ffffffffffffffffffffffffffffffffffffffff1673ffffffffffffffffffffffffffffffffffffffff1681526020019081526020016000206001820181548110151561058b57fe5b9060005260206000209060060201600260003373ffffffffffffffffffffffffffffffffffffffff1673ffffffffffffffffffffffffffffffffffffffff168152602001908152602001600020828154811015156105e557fe5b9060005260206000209060060201600082015481600001556001820160009054906101000a900460ff168160010160006101000a81548160ff021916908315150217905550600282015481600201556003820160009054906101000a900460ff168160030160006101000a81548160ff021916908360ff160217905550600482015481600401556005820154816005015590505080806001019150506104ef565b50600260003373ffffffffffffffffffffffffffffffffffffffff1673ffffffffffffffffffffffffffffffffffffffff1681526020019081526020016000208054809190600190036106d9919061157f565b50803373ffffffffffffffffffffffffffffffffffffffff167f434aac7af0aa1bc10053270b8766a5919d569d26b938a852ab774c0ab5c96f2060405160405180910390a3809050919050565b606080600260003373ffffffffffffffffffffffffffffffffffffffff1673ffffffffffffffffffffffffffffffffffffffff1681526020019081526020016000208054905060405190808252806020026020018201604052801561079a5781602001602082028038833980820191505090505b50905060008090505b600260003373ffffffffffffffffffffffffffffffffffffffff1673ffffffffffffffffffffffffffffffffffffffff1681526020019081526020016000208054905081101561087457600260003373ffffffffffffffffffffffffffffffffffffffff1673ffffffffffffffffffffffffffffffffffffffff1681526020019081526020016000208181548110151561083957fe5b906000526020600020906006020160000154828281518110151561085957fe5b906020019060200201818152505080806001019150506107a3565b503373ffffffffffffffffffffffffffffffffffffffff168160405180828051906020019060200280838360005b838110156108bd5780820151818401526020810190506108a2565b5050505090500191505060405180910390207fcae3d231d185e11480812429a96003c4dce285ffbe2078e22a4c3c75256f7f5a60405160405180910390a38091505090565b600260003373ffffffffffffffffffffffffffffffffffffffff1673ffffffffffffffffffffffffffffffffffffffff16815260200190815260200160002060c06040519081016040528083815260200160001515815260200160008152602001600060ff168152602001600060010281526020016000600102815250908060018154018082558091505090600182039060005260206000209060060201600090919290919091506000820151816000015560208201518160010160006101000a81548160ff0219169083151502179055506040820151816002015560608201518160030160006101000a81548160ff021916908360ff1602179055506080820151816004015560a082015181600501555050503373ffffffffffffffffffffffffffffffffffffffff166001600260003373ffffffffffffffffffffffffffffffffffffffff1673ffffffffffffffffffffffffffffffffffffffff1681526020019081526020016000208054905003827ffdba417557fae56ec671140cca82971fb5f5eec08410cab64375953fed4a12a360405160405180910390a450565b600160008373ffffffffffffffffffffffffffffffffffffffff1673ffffffffffffffffffffffffffffffffffffffff16815260200190815260200160002060003373ffffffffffffffffffffffffffffffffffffffff1673ffffffffffffffffffffffffffffffffffffffff16815260200190815260200160002060009054906101000a900460ff1680610b6357508173ffffffffffffffffffffffffffffffffffffffff163373ffffffffffffffffffffffffffffffffffffffff16145b1515610b6e57600080fd5b7f169fa5a400c12874a9240b06df7d41cc12d6075bb3d5786fd7374efb556b559d600260008473ffffffffffffffffffffffffffffffffffffffff1673ffffffffffffffffffffffffffffffffffffffff16815260200190815260200160002082815481101515610bdb57fe5b906000526020600020906006020160000154600260008573ffffffffffffffffffffffffffffffffffffffff1673ffffffffffffffffffffffffffffffffffffffff16815260200190815260200160002083815481101515610c3957fe5b906000526020600020906006020160010160009054906101000a900460ff16600260008673ffffffffffffffffffffffffffffffffffffffff1673ffffffffffffffffffffffffffffffffffffffff16815260200190815260200160002084815481101515610ca457fe5b906000526020600020906006020160020154600260008773ffffffffffffffffffffffffffffffffffffffff1673ffffffffffffffffffffffffffffffffffffffff16815260200190815260200160002085815481101515610d0257fe5b906000526020600020906006020160030160009054906101000a900460ff16600260008873ffffffffffffffffffffffffffffffffffffffff1673ffffffffffffffffffffffffffffffffffffffff16815260200190815260200160002086815481101515610d6d57fe5b906000526020600020906006020160040154600260008973ffffffffffffffffffffffffffffffffffffffff1673ffffffffffffffffffffffffffffffffffffffff16815260200190815260200160002087815481101515610dcb57fe5b90600052602060002090600602016005015460405180878152602001861515151581526020018581526020018460ff1660ff168152602001838152602001828152602001965050505050505060405180910390a15050565b6000809054906101000a900473ffffffffffffffffffffffffffffffffffffffff1681565b6000600260003373ffffffffffffffffffffffffffffffffffffffff1673ffffffffffffffffffffffffffffffffffffffff16815260200190815260200160002085815481101515610e9657fe5b906000526020600020906006020160000154905060008160405160200180807f19457468657265756d205369676e6564204d6573736167653a0a333200000000815250601c0182815260200191505060405160208183030381529060405280519060200120905060018186868660405160008152602001604052604051808581526020018460ff1660ff1681526020018381526020018281526020019450505050506020604051602081039080840390855afa158015610f5a573d6000803e3d6000fd5b5050506020604051035173ffffffffffffffffffffffffffffffffffffffff163373ffffffffffffffffffffffffffffffffffffffff16141515610f9d57600080fd5b60c0604051908101604052808381526020016001151581526020014381526020018660ff16815260200185815260200184815250600260003373ffffffffffffffffffffffffffffffffffffffff1673ffffffffffffffffffffffffffffffffffffffff1681526020019081526020016000208781548110151561101d57fe5b90600052602060002090600602016000820151816000015560208201518160010160006101000a81548160ff0219169083151502179055506040820151816002015560608201518160030160006101000a81548160ff021916908360ff1602179055506080820151816004015560a082015181600501559050503373ffffffffffffffffffffffffffffffffffffffff1643600260003373ffffffffffffffffffffffffffffffffffffffff1673ffffffffffffffffffffffffffffffffffffffff168152602001908152602001600020888154811015156110fb57fe5b9060005260206000209060060201600001547fff38f77a215fc67199d52b4a22767c0e55f2b6780616c0c2773c360856800e6960405160405180910390a4505050505050565b6000600160008473ffffffffffffffffffffffffffffffffffffffff1673ffffffffffffffffffffffffffffffffffffffff16815260200190815260200160002060003373ffffffffffffffffffffffffffffffffffffffff1673ffffffffffffffffffffffffffffffffffffffff16815260200190815260200160002060009054906101000a900460ff168061120357508273ffffffffffffffffffffffffffffffffffffffff163373ffffffffffffffffffffffffffffffffffffffff16145b151561120e57600080fd5b600260008473ffffffffffffffffffffffffffffffffffffffff1673ffffffffffffffffffffffffffffffffffffffff1681526020019081526020016000208281548110151561125a57fe5b906000526020600020906006020160010160009054906101000a900460ff161515600260008573ffffffffffffffffffffffffffffffffffffffff1673ffffffffffffffffffffffffffffffffffffffff168152602001908152602001600020838154811015156112c757fe5b9060005260206000209060060201600001548473ffffffffffffffffffffffffffffffffffffffff167f90ca8ad2dace2a71d49ce1064a79469247ee8137bfbbbfa6ccf147cc662a644760405160405180910390a4600260008473ffffffffffffffffffffffffffffffffffffffff1673ffffffffffffffffffffffffffffffffffffffff1681526020019081526020016000208281548110151561136857fe5b906000526020600020906006020160010160009054906101000a900460ff16905092915050565b600080600160003373ffffffffffffffffffffffffffffffffffffffff1673ffffffffffffffffffffffffffffffffffffffff16815260200190815260200160002060008473ffffffffffffffffffffffffffffffffffffffff1673ffffffffffffffffffffffffffffffffffffffff16815260200190815260200160002060006101000a81548160ff0219169083151502179055508173ffffffffffffffffffffffffffffffffffffffff163373ffffffffffffffffffffffffffffffffffffffff167fa14732e3745bcd09bb3fcc8580ca0ba2938343b4b3cbd0f395ddd7b38aa8854860405160405180910390a3819050919050565b600060018060003373ffffffffffffffffffffffffffffffffffffffff1673ffffffffffffffffffffffffffffffffffffffff16815260200190815260200160002060008473ffffffffffffffffffffffffffffffffffffffff1673ffffffffffffffffffffffffffffffffffffffff16815260200190815260200160002060006101000a81548160ff0219169083151502179055508173ffffffffffffffffffffffffffffffffffffffff163373ffffffffffffffffffffffffffffffffffffffff167fbb4e11496b5475aaef208dd35aed42ef617045213f264d285ca848ada6ad87ec60405160405180910390a3819050919050565b8154818355818111156115ac576006028160060283600052602060002091820191016115ab91906115b1565b5b505050565b61161591905b80821115611611576000808201600090556001820160006101000a81549060ff021916905560028201600090556003820160006101000a81549060ff021916905560048201600090556005820160009055506006016115b7565b5090565b9056fea165627a7a7230582030309088ae3d1862fbfaf884c33c2d2e7ee84bcddf09c3a8c7425e91baac39c40029",
  "source": "pragma solidity ^0.5.0;\n\ncontract NewHash {\n\n    address public owner;\n    \n    mapping(address => mapping(address => bool)) allowed;\n    mapping(address => hashInfo[]) hashes;\n    \n    struct hashInfo {\n        bytes32 hash;\n        bool signed;\n        uint256 signedAtBlock;\n        uint8 v;\n        bytes32 r;\n        bytes32 s;\n    }\n    \n    event HashAdded(bytes32 indexed hash, uint256 indexed index, address indexed account);\n    event VerificationRegistered(bytes32 indexed hash, uint256 indexed block, address indexed account);\n    event VerificationChecked(address indexed account, bytes32 indexed hash, bool indexed verified);\n    event HashesGotten(bytes32[] indexed hashes, address indexed account);\n    event HashInfoGotten(bytes32 hash, bool verified, uint256 block, uint8 v, bytes32 r,bytes32 s);\n    event Allowed(address indexed account, address indexed allowee);\n    event Disallowed(address indexed account, address indexed disallowee);\n    event HashDeleted(address indexed account, bytes32 indexed hash);\n\n    constructor() public {\n        owner = msg.sender;\n    }\n    \n    function addHash(bytes32 _hash) public {\n        hashes[msg.sender].push(hashInfo(_hash,false,0,0,0,0));\n        emit HashAdded(_hash, hashes[msg.sender].length-1, msg.sender);\n    }\n    \n    function registerVerification(uint256 _index, uint8 v, bytes32 r, bytes32 s) public {\n        bytes32 hashToVerify = hashes[msg.sender][_index].hash;\n        bytes32 prefixedHash = keccak256(abi.encodePacked(\"\\x19Ethereum Signed Message:\\n32\", hashToVerify));\n        require(msg.sender == ecrecover(prefixedHash, v, r, s));\n        hashes[msg.sender][_index] = hashInfo(hashToVerify,true,block.number,v,r,s);\n        emit VerificationRegistered(hashes[msg.sender][_index].hash, block.number, msg.sender);\n    }\n\n    function checkVerification(address _address, uint256 _index) public returns(bool isVerified) {\n        require(allowed[_address][msg.sender] || msg.sender == _address);\n        emit VerificationChecked(_address, hashes[_address][_index].hash, hashes[_address][_index].signed);\n        return hashes[_address][_index].signed;\n    }\n    \n    function getHashes() public returns(bytes32[] memory hashArray) {\n        bytes32[] memory returnHashes = new bytes32[](hashes[msg.sender].length);\n        for (uint i = 0; i<hashes[msg.sender].length; i++){\n            returnHashes[i] = hashes[msg.sender][i].hash;\n        }\n        emit HashesGotten(returnHashes, msg.sender);\n        return returnHashes;\n    }\n    \n    function getHashInfo(address _address, uint256 _index) public {\n        require(allowed[_address][msg.sender] || msg.sender == _address);\n        emit HashInfoGotten(hashes[_address][_index].hash,\n        hashes[_address][_index].signed,\n        hashes[_address][_index].signedAtBlock,\n        hashes[_address][_index].v,\n        hashes[_address][_index].r,\n        hashes[_address][_index].s);\n    }\n    \n    function allow(address _address) public returns(address) {\n        allowed[msg.sender][_address] = true;\n        emit Allowed(msg.sender, _address);\n        return _address;\n    }\n    \n    function disAllow(address _address) public returns(address) {\n        allowed[msg.sender][_address] = false;\n        emit Disallowed(msg.sender, _address);\n        return _address;\n    }\n    \n    function deleteHash(uint256 _index) public returns(bytes32 deletedHash) \n    {\n        require(_index < hashes[msg.sender].length);\n        deletedHash = hashes[msg.sender][_index].hash;\n        for (uint i = _index; i<hashes[msg.sender].length-1; i++){\n            hashes[msg.sender][i] = hashes[msg.sender][i+1];\n        }\n        hashes[msg.sender].length--;\n        emit HashDeleted(msg.sender, deletedHash);\n        return deletedHash;\n    }\n}",
  "sourcePath": "/Users/dylanbaker/Local/hashify/smart-contract/contracts/Hashify.sol",
  "compiler": {
    "name": "solc",
    "version": "0.5.0+commit.1d4f565a.Emscripten.clang"
  },
  "schemaVersion": "3.0.3",
  "updatedAt": "2019-04-04T04:46:25.579Z",
  "devdoc": {
    "methods": {}
  },
  "userdoc": {
    "methods": {}
  }
}