{
  "contractName": "Register",
  "abi": [
    {
      "constant": true,
      "inputs": [],
      "name": "owner",
      "outputs": [
        {
          "name": "",
          "type": "address"
        }
      ],
      "payable": false,
      "stateMutability": "view",
      "type": "function"
    },
    {
      "inputs": [],
      "payable": false,
      "stateMutability": "nonpayable",
      "type": "constructor"
    },
    {
      "constant": false,
      "inputs": [
        {
          "name": "_versionAddress",
          "type": "address"
        }
      ],
      "name": "setNewVersion",
      "outputs": [],
      "payable": false,
      "stateMutability": "nonpayable",
      "type": "function"
    },
    {
      "constant": true,
      "inputs": [],
      "name": "getLatestVersion",
      "outputs": [
        {
          "name": "",
          "type": "address"
        }
      ],
      "payable": false,
      "stateMutability": "view",
      "type": "function"
    },
    {
      "constant": true,
      "inputs": [
        {
          "name": "_index",
          "type": "uint256"
        }
      ],
      "name": "getPastVersion",
      "outputs": [
        {
          "name": "",
          "type": "address"
        }
      ],
      "payable": false,
      "stateMutability": "view",
      "type": "function"
    }
  ],
  "bytecode": "0x608060405234801561001057600080fd5b50336000806101000a81548173ffffffffffffffffffffffffffffffffffffffff021916908373ffffffffffffffffffffffffffffffffffffffff1602179055506103c7806100606000396000f3fe608060405260043610610062576000357c0100000000000000000000000000000000000000000000000000000000900463ffffffff1680630e6d1de9146100675780635ce7d299146100be5780638da5cb5b1461010f578063931beebe14610166575b600080fd5b34801561007357600080fd5b5061007c6101e1565b604051808273ffffffffffffffffffffffffffffffffffffffff1673ffffffffffffffffffffffffffffffffffffffff16815260200191505060405180910390f35b3480156100ca57600080fd5b5061010d600480360360208110156100e157600080fd5b81019080803573ffffffffffffffffffffffffffffffffffffffff16906020019092919050505061022e565b005b34801561011b57600080fd5b50610124610303565b604051808273ffffffffffffffffffffffffffffffffffffffff1673ffffffffffffffffffffffffffffffffffffffff16815260200191505060405180910390f35b34801561017257600080fd5b5061019f6004803603602081101561018957600080fd5b8101908080359060200190929190505050610328565b604051808273ffffffffffffffffffffffffffffffffffffffff1673ffffffffffffffffffffffffffffffffffffffff16815260200191505060405180910390f35b600080600180805490500390506001818154811015156101fd57fe5b9060005260206000200160009054906101000a900473ffffffffffffffffffffffffffffffffffffffff1691505090565b6000809054906101000a900473ffffffffffffffffffffffffffffffffffffffff1673ffffffffffffffffffffffffffffffffffffffff163373ffffffffffffffffffffffffffffffffffffffff1614801561028f575061028e8161036b565b5b151561029a57600080fd5b60018190806001815401808255809150509060018203906000526020600020016000909192909190916101000a81548173ffffffffffffffffffffffffffffffffffffffff021916908373ffffffffffffffffffffffffffffffffffffffff1602179055505050565b6000809054906101000a900473ffffffffffffffffffffffffffffffffffffffff1681565b600060018281548110151561033957fe5b9060005260206000200160009054906101000a900473ffffffffffffffffffffffffffffffffffffffff169050919050565b6000813b158060008114610386576001811461038f57610394565b60019250610394565b600092505b505091905056fea165627a7a72305820bf1ba386e6e7271c81c6d27a3c649f7b4d00feb267f18e509c270aba8de68afe0029",
  "source": "pragma solidity ^0.5.0;\n\ncontract Register {\n    \n    address public owner;\n    address[] versions;\n    \n    constructor() public {\n        owner = msg.sender;\n    }\n    \n    function setNewVersion(address _versionAddress) public {\n        require(msg.sender == owner && requireContract(_versionAddress) );\n        versions.push(_versionAddress);\n    }\n    \n    function getLatestVersion() public view returns(address) {\n        uint256 _index = versions.length-1;\n        return versions[_index];\n    }\n    \n    function getPastVersion(uint256 _index) public view returns(address) {\n        return versions[_index];\n    }\n    \n    function requireContract(address _versionAddress) private view returns (bool isContract) {\n        assembly {\n            let isEOA := iszero(extcodesize(_versionAddress)) //check if code at address is empty, returns true if so\n            switch isEOA\n            case 0 { isContract := 1 } //if code at address, return true\n            case 1 { isContract := 0 } //if no code at address, return false\n        }\n    }\n}\n\ncontract Proxy {\n\n    address owner;\n    Register reg;\n\n    constructor(address _register) public {\n        owner = msg.sender;\n        reg = Register(address(_register)); //pass in address of version register\n    }\n    \n    function() payable external {\n        address _base = reg.getLatestVersion(); //get current version from register\n        assembly {\n            let ptr := mload(0x40) //set pointer to free memory slot\n            calldatacopy(ptr, 0, calldatasize) //copy call data from scratchpad to free mem slot at pointer\n            \n            let result := delegatecall(\n                gas, //gas limit\n                _base, //destination address\n                ptr, //input data location\n                calldatasize, //input data size\n                0, //location to write output data\n                0) //output data size\n                \n            returndatacopy(ptr, 0, returndatasize) //copy return data from scratchpad to free mem slot at pointer\n            \n            switch result\n            case 0 { revert(ptr, returndatasize) } //if call failed revert and display data at ptr\n            default { return(ptr, returndatasize) } //if call succeeded return data at ptr\n        }\n    }  \n}",
  "sourcePath": "/Users/dylanbaker/Local/hashify/smart-contract/contracts/Upgrade.sol",
  "compiler": {
    "name": "solc",
    "version": "0.5.0+commit.1d4f565a.Emscripten.clang"
  },
  "schemaVersion": "3.0.3",
  "updatedAt": "2019-04-04T04:52:18.933Z",
  "devdoc": {
    "methods": {}
  },
  "userdoc": {
    "methods": {}
  }
}